{
  "contractName": "FileStorage",
  "abi": [
    {
      "anonymous": false,
      "inputs": [
        {
          "indexed": false,
          "internalType": "uint256",
          "name": "fileId",
          "type": "uint256"
        },
        {
          "indexed": false,
          "internalType": "string",
          "name": "ipfsHash",
          "type": "string"
        },
        {
          "indexed": false,
          "internalType": "string",
          "name": "fileName",
          "type": "string"
        },
        {
          "indexed": false,
          "internalType": "uint256",
          "name": "fileSize",
          "type": "uint256"
        },
        {
          "indexed": false,
          "internalType": "string",
          "name": "fileType",
          "type": "string"
        },
        {
          "indexed": true,
          "internalType": "address",
          "name": "owner",
          "type": "address"
        }
      ],
      "name": "FileUploaded",
      "type": "event"
    },
    {
      "inputs": [],
      "name": "fileCount",
      "outputs": [
        {
          "internalType": "uint256",
          "name": "",
          "type": "uint256"
        }
      ],
      "stateMutability": "view",
      "type": "function"
    },
    {
      "inputs": [
        {
          "internalType": "uint256",
          "name": "",
          "type": "uint256"
        }
      ],
      "name": "files",
      "outputs": [
        {
          "internalType": "string",
          "name": "ipfsHash",
          "type": "string"
        },
        {
          "internalType": "string",
          "name": "fileName",
          "type": "string"
        },
        {
          "internalType": "uint256",
          "name": "fileSize",
          "type": "uint256"
        },
        {
          "internalType": "string",
          "name": "fileType",
          "type": "string"
        },
        {
          "internalType": "address",
          "name": "owner",
          "type": "address"
        }
      ],
      "stateMutability": "view",
      "type": "function"
    },
    {
      "inputs": [
        {
          "internalType": "string",
          "name": "_ipfsHash",
          "type": "string"
        },
        {
          "internalType": "string",
          "name": "_fileName",
          "type": "string"
        },
        {
          "internalType": "uint256",
          "name": "_fileSize",
          "type": "uint256"
        },
        {
          "internalType": "string",
          "name": "_fileType",
          "type": "string"
        }
      ],
      "name": "uploadFile",
      "outputs": [],
      "stateMutability": "nonpayable",
      "type": "function"
    }
  ],
  "bytecode": "0x608060405234801561000f575f80fd5b50610e1e8061001d5f395ff3fe608060405234801561000f575f80fd5b506004361061003f575f3560e01c80630184683314610043578063439535191461005f578063f4c714b41461007d575b5f80fd5b61005d6004803603810190610058919061067b565b6100b1565b005b610067610313565b6040516100749190610742565b60405180910390f35b6100976004803603810190610092919061075b565b610319565b6040516100a895949392919061083f565b60405180910390f35b5f8451116100f4576040517f08c379a00000000000000000000000000000000000000000000000000000000081526004016100eb906108ef565b60405180910390fd5b5f835111610137576040517f08c379a000000000000000000000000000000000000000000000000000000000815260040161012e90610957565b60405180910390fd5b5f81511161017a576040517f08c379a0000000000000000000000000000000000000000000000000000000008152600401610171906109bf565b60405180910390fd5b5f82116101bc576040517f08c379a00000000000000000000000000000000000000000000000000000000081526004016101b390610a27565b60405180910390fd5b60015f8154809291906101ce90610a72565b91905055506040518060a001604052808581526020018481526020018381526020018281526020013373ffffffffffffffffffffffffffffffffffffffff168152505f8060015481526020019081526020015f205f820151815f0190816102359190610cb3565b50602082015181600101908161024b9190610cb3565b5060408201518160020155606082015181600301908161026b9190610cb3565b506080820151816004015f6101000a81548173ffffffffffffffffffffffffffffffffffffffff021916908373ffffffffffffffffffffffffffffffffffffffff1602179055509050503373ffffffffffffffffffffffffffffffffffffffff167fbf0525e567b9f99a3f0f19b060a3e282c02845bc5562e5370e02155336a5d1f260015486868686604051610305959493929190610d82565b60405180910390a250505050565b60015481565b5f602052805f5260405f205f91509050805f01805461033790610ae6565b80601f016020809104026020016040519081016040528092919081815260200182805461036390610ae6565b80156103ae5780601f10610385576101008083540402835291602001916103ae565b820191905f5260205f20905b81548152906001019060200180831161039157829003601f168201915b5050505050908060010180546103c390610ae6565b80601f01602080910402602001604051908101604052809291908181526020018280546103ef90610ae6565b801561043a5780601f106104115761010080835404028352916020019161043a565b820191905f5260205f20905b81548152906001019060200180831161041d57829003601f168201915b50505050509080600201549080600301805461045590610ae6565b80601f016020809104026020016040519081016040528092919081815260200182805461048190610ae6565b80156104cc5780601f106104a3576101008083540402835291602001916104cc565b820191905f5260205f20905b8154815290600101906020018083116104af57829003601f168201915b505050505090806004015f9054906101000a900473ffffffffffffffffffffffffffffffffffffffff16905085565b5f604051905090565b5f80fd5b5f80fd5b5f80fd5b5f80fd5b5f601f19601f8301169050919050565b7f4e487b71000000000000000000000000000000000000000000000000000000005f52604160045260245ffd5b61055a82610514565b810181811067ffffffffffffffff8211171561057957610578610524565b5b80604052505050565b5f61058b6104fb565b90506105978282610551565b919050565b5f67ffffffffffffffff8211156105b6576105b5610524565b5b6105bf82610514565b9050602081019050919050565b828183375f83830152505050565b5f6105ec6105e78461059c565b610582565b90508281526020810184848401111561060857610607610510565b5b6106138482856105cc565b509392505050565b5f82601f83011261062f5761062e61050c565b5b813561063f8482602086016105da565b91505092915050565b5f819050919050565b61065a81610648565b8114610664575f80fd5b50565b5f8135905061067581610651565b92915050565b5f805f806080858703121561069357610692610504565b5b5f85013567ffffffffffffffff8111156106b0576106af610508565b5b6106bc8782880161061b565b945050602085013567ffffffffffffffff8111156106dd576106dc610508565b5b6106e98782880161061b565b93505060406106fa87828801610667565b925050606085013567ffffffffffffffff81111561071b5761071a610508565b5b6107278782880161061b565b91505092959194509250565b61073c81610648565b82525050565b5f6020820190506107555f830184610733565b92915050565b5f602082840312156107705761076f610504565b5b5f61077d84828501610667565b91505092915050565b5f81519050919050565b5f82825260208201905092915050565b5f5b838110156107bd5780820151818401526020810190506107a2565b5f8484015250505050565b5f6107d282610786565b6107dc8185610790565b93506107ec8185602086016107a0565b6107f581610514565b840191505092915050565b5f73ffffffffffffffffffffffffffffffffffffffff82169050919050565b5f61082982610800565b9050919050565b6108398161081f565b82525050565b5f60a0820190508181035f83015261085781886107c8565b9050818103602083015261086b81876107c8565b905061087a6040830186610733565b818103606083015261088c81856107c8565b905061089b6080830184610830565b9695505050505050565b7f4950465320686173682069732072657175697265642e000000000000000000005f82015250565b5f6108d9601683610790565b91506108e4826108a5565b602082019050919050565b5f6020820190508181035f830152610906816108cd565b9050919050565b7f46696c65204e616d652069732072657175697265642e000000000000000000005f82015250565b5f610941601683610790565b915061094c8261090d565b602082019050919050565b5f6020820190508181035f83015261096e81610935565b9050919050565b7f46696c6520547970652069732072657175697265642e000000000000000000005f82015250565b5f6109a9601683610790565b91506109b482610975565b602082019050919050565b5f6020820190508181035f8301526109d68161099d565b9050919050565b7f46696c652053697a652069732072657175697265642e000000000000000000005f82015250565b5f610a11601683610790565b9150610a1c826109dd565b602082019050919050565b5f6020820190508181035f830152610a3e81610a05565b9050919050565b7f4e487b71000000000000000000000000000000000000000000000000000000005f52601160045260245ffd5b5f610a7c82610648565b91507fffffffffffffffffffffffffffffffffffffffffffffffffffffffffffffffff8203610aae57610aad610a45565b5b600182019050919050565b7f4e487b71000000000000000000000000000000000000000000000000000000005f52602260045260245ffd5b5f6002820490506001821680610afd57607f821691505b602082108103610b1057610b0f610ab9565b5b50919050565b5f819050815f5260205f209050919050565b5f6020601f8301049050919050565b5f82821b905092915050565b5f60088302610b727fffffffffffffffffffffffffffffffffffffffffffffffffffffffffffffffff82610b37565b610b7c8683610b37565b95508019841693508086168417925050509392505050565b5f819050919050565b5f610bb7610bb2610bad84610648565b610b94565b610648565b9050919050565b5f819050919050565b610bd083610b9d565b610be4610bdc82610bbe565b848454610b43565b825550505050565b5f90565b610bf8610bec565b610c03818484610bc7565b505050565b5b81811015610c2657610c1b5f82610bf0565b600181019050610c09565b5050565b601f821115610c6b57610c3c81610b16565b610c4584610b28565b81016020851015610c54578190505b610c68610c6085610b28565b830182610c08565b50505b505050565b5f82821c905092915050565b5f610c8b5f1984600802610c70565b1980831691505092915050565b5f610ca38383610c7c565b9150826002028217905092915050565b610cbc82610786565b67ffffffffffffffff811115610cd557610cd4610524565b5b610cdf8254610ae6565b610cea828285610c2a565b5f60209050601f831160018114610d1b575f8415610d09578287015190505b610d138582610c98565b865550610d7a565b601f198416610d2986610b16565b5f5b82811015610d5057848901518255600182019150602085019450602081019050610d2b565b86831015610d6d5784890151610d69601f891682610c7c565b8355505b6001600288020188555050505b505050505050565b5f60a082019050610d955f830188610733565b8181036020830152610da781876107c8565b90508181036040830152610dbb81866107c8565b9050610dca6060830185610733565b8181036080830152610ddc81846107c8565b9050969550505050505056fea2646970667358221220681422aa8af8c10c77d9d90b572d6c0f50ae2d97c1f872264bb816a3aad5cf6f64736f6c63430008150033",
  "immutableReferences": {},
  "source": "// SPDX-License-Identifier: MIT \r\npragma solidity ^0.8.0;\r\n\r\ncontract FileStorage {\r\n    struct File {\r\n        string ipfsHash;\r\n        string fileName;\r\n        uint fileSize;\r\n        string fileType;\r\n        address owner;\r\n    }\r\n\r\n    mapping(uint => File) public files;\r\n    uint public fileCount;\r\n\r\n    event FileUploaded(\r\n        uint fileId,\r\n        string ipfsHash,\r\n        string fileName,\r\n        uint fileSize,\r\n        string fileType,\r\n        address indexed owner\r\n    );\r\n\r\n    function uploadFile(string memory _ipfsHash, string memory _fileName, uint _fileSize, string memory _fileType) public {\r\n        require(bytes(_ipfsHash).length > 0, \"IPFS hash is required.\");\r\n        require(bytes(_fileName).length > 0, \"File Name is required.\");\r\n        require(bytes(_fileType).length > 0, \"File Type is required.\");\r\n        require(_fileSize > 0, \"File Size is required.\");\r\n\r\n        fileCount++;\r\n        files[fileCount] = File({\r\n            ipfsHash: _ipfsHash,\r\n            fileName: _fileName,\r\n            fileSize: _fileSize,\r\n            fileType: _fileType,\r\n            owner: msg.sender\r\n        });\r\n\r\n        emit FileUploaded(fileCount, _ipfsHash, _fileName, _fileSize, _fileType, msg.sender);\r\n    }\r\n}",
  "sourcePath": "C:\\Users\\chaudhd\\Documents\\vault_piece\\Contracts\\contracts\\FileStorage.sol",
  "compiler": {
    "name": "solc",
    "version": "0.8.21+commit.d9974bed.Emscripten.clang"
  },
  "schemaVersion": "3.4.16",
  "updatedAt": "2024-07-28T23:10:24.003Z",
  "devdoc": {
    "kind": "dev",
    "methods": {},
    "version": 1
  },
  "userdoc": {
    "kind": "user",
    "methods": {},
    "version": 1
  }
}